{
  "contractName": "Wallet",
  "abi": [
    {
      "inputs": [
        {
          "internalType": "address[]",
          "name": "_approvers",
          "type": "address[]"
        },
        {
          "internalType": "uint256",
          "name": "_quorum",
          "type": "uint256"
        }
      ],
      "stateMutability": "nonpayable",
      "type": "constructor"
    },
    {
      "inputs": [
        {
          "internalType": "uint256",
          "name": "",
          "type": "uint256"
        }
      ],
      "name": "approvers",
      "outputs": [
        {
          "internalType": "address",
          "name": "",
          "type": "address"
        }
      ],
      "stateMutability": "view",
      "type": "function",
      "constant": true
    },
    {
      "inputs": [],
      "name": "quorum",
      "outputs": [
        {
          "internalType": "uint256",
          "name": "",
          "type": "uint256"
        }
      ],
      "stateMutability": "view",
      "type": "function",
      "constant": true
    },
    {
      "inputs": [
        {
          "internalType": "uint256",
          "name": "",
          "type": "uint256"
        }
      ],
      "name": "transfers",
      "outputs": [
        {
          "internalType": "uint256",
          "name": "id",
          "type": "uint256"
        },
        {
          "internalType": "uint256",
          "name": "amount",
          "type": "uint256"
        },
        {
          "internalType": "address payable",
          "name": "to",
          "type": "address"
        },
        {
          "internalType": "uint256",
          "name": "approvals",
          "type": "uint256"
        },
        {
          "internalType": "bool",
          "name": "sent",
          "type": "bool"
        }
      ],
      "stateMutability": "view",
      "type": "function",
      "constant": true
    },
    {
      "stateMutability": "payable",
      "type": "receive",
      "payable": true
    },
    {
      "inputs": [],
      "name": "getApprovers",
      "outputs": [
        {
          "internalType": "address[]",
          "name": "",
          "type": "address[]"
        }
      ],
      "stateMutability": "view",
      "type": "function",
      "constant": true
    },
    {
      "inputs": [
        {
          "internalType": "uint256",
          "name": "id",
          "type": "uint256"
        }
      ],
      "name": "isApprovedBy",
      "outputs": [
        {
          "internalType": "bool",
          "name": "",
          "type": "bool"
        }
      ],
      "stateMutability": "view",
      "type": "function",
      "constant": true
    },
    {
      "inputs": [
        {
          "internalType": "uint256",
          "name": "amount",
          "type": "uint256"
        },
        {
          "internalType": "address payable",
          "name": "to",
          "type": "address"
        }
      ],
      "name": "createTransfer",
      "outputs": [],
      "stateMutability": "nonpayable",
      "type": "function"
    },
    {
      "inputs": [],
      "name": "getTransfers",
      "outputs": [
        {
          "components": [
            {
              "internalType": "uint256",
              "name": "id",
              "type": "uint256"
            },
            {
              "internalType": "uint256",
              "name": "amount",
              "type": "uint256"
            },
            {
              "internalType": "address payable",
              "name": "to",
              "type": "address"
            },
            {
              "internalType": "uint256",
              "name": "approvals",
              "type": "uint256"
            },
            {
              "internalType": "bool",
              "name": "sent",
              "type": "bool"
            }
          ],
          "internalType": "struct Wallet.Transfer[]",
          "name": "",
          "type": "tuple[]"
        }
      ],
      "stateMutability": "view",
      "type": "function",
      "constant": true
    },
    {
      "inputs": [
        {
          "internalType": "uint256",
          "name": "id",
          "type": "uint256"
        }
      ],
      "name": "approveTransfer",
      "outputs": [],
      "stateMutability": "nonpayable",
      "type": "function"
    }
  ],
  "bytecode": "0x60806040523480156200001157600080fd5b506040516200155d3803806200155d8339818101604052810190620000379190620001dd565b81600090805190602001906200004f9291906200005f565b5080600181905550505062000377565b828054828255906000526020600020908101928215620000db579160200282015b82811115620000da5782518260006101000a81548173ffffffffffffffffffffffffffffffffffffffff021916908373ffffffffffffffffffffffffffffffffffffffff1602179055509160200191906001019062000080565b5b509050620000ea9190620000ee565b5090565b5b8082111562000109576000816000905550600101620000ef565b5090565b6000620001246200011e8462000260565b62000237565b905080838252602082019050828560208602820111156200014457600080fd5b60005b858110156200017857816200015d888262000182565b84526020840193506020830192505060018101905062000147565b5050509392505050565b600081519050620001938162000343565b92915050565b600082601f830112620001ab57600080fd5b8151620001bd8482602086016200010d565b91505092915050565b600081519050620001d7816200035d565b92915050565b60008060408385031215620001f157600080fd5b600083015167ffffffffffffffff8111156200020c57600080fd5b6200021a8582860162000199565b92505060206200022d85828601620001c6565b9150509250929050565b60006200024362000256565b9050620002518282620002cd565b919050565b6000604051905090565b600067ffffffffffffffff8211156200027e576200027d62000303565b5b602082029050602081019050919050565b60006200029c82620002a3565b9050919050565b600073ffffffffffffffffffffffffffffffffffffffff82169050919050565b6000819050919050565b620002d88262000332565b810181811067ffffffffffffffff82111715620002fa57620002f962000303565b5b80604052505050565b7f4e487b7100000000000000000000000000000000000000000000000000000000600052604160045260246000fd5b6000601f19601f8301169050919050565b6200034e816200028f565b81146200035a57600080fd5b50565b6200036881620002c3565b81146200037457600080fd5b50565b6111d680620003876000396000f3fe60806040526004361061007f5760003560e01c80637dda61941161004e5780637dda6194146101355780639377d71114610172578063cacca4a0146101b3578063d3650fb8146101dc57610086565b80631703a0181461008b5780632f65142c146100b65780634c12fa47146100e15780636cb3e8ef1461010a57610086565b3661008657005b600080fd5b34801561009757600080fd5b506100a0610219565b6040516100ad9190610f34565b60405180910390f35b3480156100c257600080fd5b506100cb61021f565b6040516100d89190610e97565b60405180910390f35b3480156100ed57600080fd5b5061010860048036038101906101039190610be9565b61030d565b005b34801561011657600080fd5b5061011f610513565b60405161012c9190610e75565b60405180910390f35b34801561014157600080fd5b5061015c60048036038101906101579190610bc0565b6105a1565b6040516101699190610eb9565b60405180910390f35b34801561017e57600080fd5b5061019960048036038101906101949190610bc0565b610608565b6040516101aa959493929190610f4f565b60405180910390f35b3480156101bf57600080fd5b506101da60048036038101906101d59190610bc0565b61067b565b005b3480156101e857600080fd5b5061020360048036038101906101fe9190610bc0565b610b57565b6040516102109190610e5a565b60405180910390f35b60015481565b60606002805480602002602001604051908101604052809291908181526020016000905b8282101561030457838290600052602060002090600502016040518060a001604052908160008201548152602001600182015481526020016002820160009054906101000a900473ffffffffffffffffffffffffffffffffffffffff1673ffffffffffffffffffffffffffffffffffffffff1673ffffffffffffffffffffffffffffffffffffffff168152602001600382015481526020016004820160009054906101000a900460ff16151515158152505081526020019060010190610243565b50505050905090565b6000805b6000805490508110156103ce573373ffffffffffffffffffffffffffffffffffffffff166000828154811061036f577f4e487b7100000000000000000000000000000000000000000000000000000000600052603260045260246000fd5b9060005260206000200160009054906101000a900473ffffffffffffffffffffffffffffffffffffffff1673ffffffffffffffffffffffffffffffffffffffff1614156103bb57600191505b80806103c69061107f565b915050610311565b506001151581151514610416576040517f08c379a000000000000000000000000000000000000000000000000000000000815260040161040d90610ef4565b60405180910390fd5b60026040518060a0016040528060028054905081526020018581526020018473ffffffffffffffffffffffffffffffffffffffff16815260200160008152602001600015158152509080600181540180825580915050600190039060005260206000209060050201600090919091909150600082015181600001556020820151816001015560408201518160020160006101000a81548173ffffffffffffffffffffffffffffffffffffffff021916908373ffffffffffffffffffffffffffffffffffffffff1602179055506060820151816003015560808201518160040160006101000a81548160ff0219169083151502179055505050505050565b6060600080548060200260200160405190810160405280929190818152602001828054801561059757602002820191906000526020600020905b8160009054906101000a900473ffffffffffffffffffffffffffffffffffffffff1673ffffffffffffffffffffffffffffffffffffffff168152602001906001019080831161054d575b5050505050905090565b6000600360003373ffffffffffffffffffffffffffffffffffffffff1673ffffffffffffffffffffffffffffffffffffffff168152602001908152602001600020600083815260200190815260200160002060009054906101000a900460ff169050919050565b6002818154811061061857600080fd5b90600052602060002090600502016000915090508060000154908060010154908060020160009054906101000a900473ffffffffffffffffffffffffffffffffffffffff16908060030154908060040160009054906101000a900460ff16905085565b6000805b60008054905081101561073c573373ffffffffffffffffffffffffffffffffffffffff16600082815481106106dd577f4e487b7100000000000000000000000000000000000000000000000000000000600052603260045260246000fd5b9060005260206000200160009054906101000a900473ffffffffffffffffffffffffffffffffffffffff1673ffffffffffffffffffffffffffffffffffffffff16141561072957600191505b80806107349061107f565b91505061067f565b506001151581151514610784576040517f08c379a000000000000000000000000000000000000000000000000000000000815260040161077b90610ef4565b60405180910390fd5b60001515600283815481106107c2577f4e487b7100000000000000000000000000000000000000000000000000000000600052603260045260246000fd5b906000526020600020906005020160040160009054906101000a900460ff16151514610823576040517f08c379a000000000000000000000000000000000000000000000000000000000815260040161081a90610ed4565b60405180910390fd5b60001515600360003373ffffffffffffffffffffffffffffffffffffffff1673ffffffffffffffffffffffffffffffffffffffff168152602001908152602001600020600084815260200190815260200160002060009054906101000a900460ff161515146108c7576040517f08c379a00000000000000000000000000000000000000000000000000000000081526004016108be90610f14565b60405180910390fd5b6001600360003373ffffffffffffffffffffffffffffffffffffffff1673ffffffffffffffffffffffffffffffffffffffff168152602001908152602001600020600084815260200190815260200160002060006101000a81548160ff0219169083151502179055506002828154811061096a577f4e487b7100000000000000000000000000000000000000000000000000000000600052603260045260246000fd5b9060005260206000209060050201600301600081548092919061098c9061107f565b9190505550600154600283815481106109ce577f4e487b7100000000000000000000000000000000000000000000000000000000600052603260045260246000fd5b90600052602060002090600502016003015410610b5357600160028381548110610a21577f4e487b7100000000000000000000000000000000000000000000000000000000600052603260045260246000fd5b906000526020600020906005020160040160006101000a81548160ff021916908315150217905550600060028381548110610a85577f4e487b7100000000000000000000000000000000000000000000000000000000600052603260045260246000fd5b906000526020600020906005020160020160009054906101000a900473ffffffffffffffffffffffffffffffffffffffff169050600060028481548110610af5577f4e487b7100000000000000000000000000000000000000000000000000000000600052603260045260246000fd5b90600052602060002090600502016001015490508173ffffffffffffffffffffffffffffffffffffffff166108fc829081150290604051600060405180830381858888f19350505050158015610b4f573d6000803e3d6000fd5b5050505b5050565b60008181548110610b6757600080fd5b906000526020600020016000915054906101000a900473ffffffffffffffffffffffffffffffffffffffff1681565b600081359050610ba581611172565b92915050565b600081359050610bba81611189565b92915050565b600060208284031215610bd257600080fd5b6000610be084828501610bab565b91505092915050565b60008060408385031215610bfc57600080fd5b6000610c0a85828601610bab565b9250506020610c1b85828601610b96565b9150509250929050565b6000610c318383610c73565b60208301905092915050565b6000610c498383610dd4565b60a08301905092915050565b610c5e81611037565b82525050565b610c6d81611037565b82525050565b610c7c81611025565b82525050565b610c8b81611025565b82525050565b6000610c9c82610fc2565b610ca68185610ff2565b9350610cb183610fa2565b8060005b83811015610ce2578151610cc98882610c25565b9750610cd483610fd8565b925050600181019050610cb5565b5085935050505092915050565b6000610cfa82610fcd565b610d048185611003565b9350610d0f83610fb2565b8060005b83811015610d40578151610d278882610c3d565b9750610d3283610fe5565b925050600181019050610d13565b5085935050505092915050565b610d5681611049565b82525050565b610d6581611049565b82525050565b6000610d78601e83611014565b9150610d83826110f7565b602082019050919050565b6000610d9b601583611014565b9150610da682611120565b602082019050919050565b6000610dbe601d83611014565b9150610dc982611149565b602082019050919050565b60a082016000820151610dea6000850182610e3c565b506020820151610dfd6020850182610e3c565b506040820151610e106040850182610c55565b506060820151610e236060850182610e3c565b506080820151610e366080850182610d4d565b50505050565b610e4581611075565b82525050565b610e5481611075565b82525050565b6000602082019050610e6f6000830184610c82565b92915050565b60006020820190508181036000830152610e8f8184610c91565b905092915050565b60006020820190508181036000830152610eb18184610cef565b905092915050565b6000602082019050610ece6000830184610d5c565b92915050565b60006020820190508181036000830152610eed81610d6b565b9050919050565b60006020820190508181036000830152610f0d81610d8e565b9050919050565b60006020820190508181036000830152610f2d81610db1565b9050919050565b6000602082019050610f496000830184610e4b565b92915050565b600060a082019050610f646000830188610e4b565b610f716020830187610e4b565b610f7e6040830186610c64565b610f8b6060830185610e4b565b610f986080830184610d5c565b9695505050505050565b6000819050602082019050919050565b6000819050602082019050919050565b600081519050919050565b600081519050919050565b6000602082019050919050565b6000602082019050919050565b600082825260208201905092915050565b600082825260208201905092915050565b600082825260208201905092915050565b600061103082611055565b9050919050565b600061104282611055565b9050919050565b60008115159050919050565b600073ffffffffffffffffffffffffffffffffffffffff82169050919050565b6000819050919050565b600061108a82611075565b91507fffffffffffffffffffffffffffffffffffffffffffffffffffffffffffffffff8214156110bd576110bc6110c8565b5b600182019050919050565b7f4e487b7100000000000000000000000000000000000000000000000000000000600052601160045260246000fd5b7f7472616e736665722068617320616c7265616479206265656e2073656e740000600082015250565b7f6f6e6c7920617070726f76657220616c6c6f7765640000000000000000000000600082015250565b7f63616e6e6f7420617070726f7665207472616e73666572207477696365000000600082015250565b61117b81611037565b811461118657600080fd5b50565b61119281611075565b811461119d57600080fd5b5056fea26469706673582212206513dadb40583f6237e5a5bfc5c9b909c5de7653bcacf67dcd8c65980494b64b64736f6c63430008040033",
  "immutableReferences": {},
  "source": "/* SPDX-License-Identifier: UNLICENSED */\npragma solidity 0.8.4;\n\ncontract Wallet {\n    address[] public approvers;\n    uint public quorum;\n    \n    struct Transfer {\n        uint id;\n        uint amount;\n        address payable to;\n        uint approvals;\n        bool sent;\n    }\n    Transfer[] public transfers;\n    mapping(address => mapping(uint => bool)) approvals;\n    \n    constructor(address[] memory _approvers, uint _quorum) {\n        approvers = _approvers;\n        quorum = _quorum;\n    }\n    \n    function getApprovers() external view returns(address[] memory) {\n        return approvers;\n    }\n\n    function isApprovedBy(uint id) external view returns(bool) {\n      return approvals[msg.sender][id];\n    }\n\n    function createTransfer(uint amount, address payable to) external onlyApprover() {\n        transfers.push(Transfer(\n            transfers.length,\n            amount,\n            to,\n            0,\n            false\n        ));\n    }\n    \n    function getTransfers() external view returns(Transfer[] memory) {\n        return transfers;\n    }\n    \n    function approveTransfer(uint id) external onlyApprover() {\n        require(transfers[id].sent == false, \"transfer has already been sent\");\n        require(approvals[msg.sender][id] == false, \"cannot approve transfer twice\");\n        \n        approvals[msg.sender][id] = true;\n        transfers[id].approvals++;\n        \n        if (transfers[id].approvals >= quorum) {\n            transfers[id].sent =  true;\n            address payable to = transfers[id].to;\n            uint amount = transfers[id].amount;\n            to.transfer(amount);\n        }\n    }\n    \n    modifier onlyApprover() {\n      bool allowed = false;\n      for (uint i = 0; i < approvers.length; i++) {\n          if (approvers[i] == msg.sender) {\n              allowed = true;\n          }\n      }\n      require(allowed == true, \"only approver allowed\");\n      _;\n    }\n    \n    receive() external payable {}\n}\n",
  "sourcePath": "/Users/dominicwong/Code/wallet/contracts/Wallet.sol",
  "compiler": {
    "name": "solc",
    "version": "0.8.4+commit.c7e474f2.Emscripten.clang"
  },
  "schemaVersion": "3.3.4",
  "updatedAt": "2021-05-16T11:24:44.194Z",
  "networkType": "ethereum",
  "devdoc": {
    "kind": "dev",
    "methods": {},
    "version": 1
  },
  "userdoc": {
    "kind": "user",
    "methods": {},
    "version": 1
  }
}