{
  "contractName": "Wallet",
  "abi": [
    {
      "inputs": [
        {
          "internalType": "address[]",
          "name": "_approvers",
          "type": "address[]"
        },
        {
          "internalType": "uint256",
          "name": "_quorum",
          "type": "uint256"
        }
      ],
      "stateMutability": "nonpayable",
      "type": "constructor"
    },
    {
      "inputs": [
        {
          "internalType": "uint256",
          "name": "",
          "type": "uint256"
        }
      ],
      "name": "approvers",
      "outputs": [
        {
          "internalType": "address",
          "name": "",
          "type": "address"
        }
      ],
      "stateMutability": "view",
      "type": "function",
      "constant": true
    },
    {
      "inputs": [],
      "name": "quorum",
      "outputs": [
        {
          "internalType": "uint256",
          "name": "",
          "type": "uint256"
        }
      ],
      "stateMutability": "view",
      "type": "function",
      "constant": true
    },
    {
      "inputs": [
        {
          "internalType": "uint256",
          "name": "",
          "type": "uint256"
        }
      ],
      "name": "transfers",
      "outputs": [
        {
          "internalType": "uint256",
          "name": "id",
          "type": "uint256"
        },
        {
          "internalType": "uint256",
          "name": "amount",
          "type": "uint256"
        },
        {
          "internalType": "address payable",
          "name": "to",
          "type": "address"
        },
        {
          "internalType": "uint256",
          "name": "approvals",
          "type": "uint256"
        },
        {
          "internalType": "bool",
          "name": "sent",
          "type": "bool"
        }
      ],
      "stateMutability": "view",
      "type": "function",
      "constant": true
    },
    {
      "stateMutability": "payable",
      "type": "receive",
      "payable": true
    },
    {
      "inputs": [],
      "name": "getApprovers",
      "outputs": [
        {
          "internalType": "address[]",
          "name": "",
          "type": "address[]"
        }
      ],
      "stateMutability": "view",
      "type": "function",
      "constant": true
    },
    {
      "inputs": [
        {
          "internalType": "uint256",
          "name": "amount",
          "type": "uint256"
        },
        {
          "internalType": "address payable",
          "name": "to",
          "type": "address"
        }
      ],
      "name": "createTransfer",
      "outputs": [],
      "stateMutability": "nonpayable",
      "type": "function"
    },
    {
      "inputs": [],
      "name": "getTransfers",
      "outputs": [
        {
          "components": [
            {
              "internalType": "uint256",
              "name": "id",
              "type": "uint256"
            },
            {
              "internalType": "uint256",
              "name": "amount",
              "type": "uint256"
            },
            {
              "internalType": "address payable",
              "name": "to",
              "type": "address"
            },
            {
              "internalType": "uint256",
              "name": "approvals",
              "type": "uint256"
            },
            {
              "internalType": "bool",
              "name": "sent",
              "type": "bool"
            }
          ],
          "internalType": "struct Wallet.Transfer[]",
          "name": "",
          "type": "tuple[]"
        }
      ],
      "stateMutability": "view",
      "type": "function",
      "constant": true
    },
    {
      "inputs": [
        {
          "internalType": "uint256",
          "name": "id",
          "type": "uint256"
        }
      ],
      "name": "approveTransfer",
      "outputs": [],
      "stateMutability": "nonpayable",
      "type": "function"
    }
  ],
  "bytecode": "0x60806040523480156200001157600080fd5b5060405162001493380380620014938339818101604052810190620000379190620001dd565b81600090805190602001906200004f9291906200005f565b5080600181905550505062000377565b828054828255906000526020600020908101928215620000db579160200282015b82811115620000da5782518260006101000a81548173ffffffffffffffffffffffffffffffffffffffff021916908373ffffffffffffffffffffffffffffffffffffffff1602179055509160200191906001019062000080565b5b509050620000ea9190620000ee565b5090565b5b8082111562000109576000816000905550600101620000ef565b5090565b6000620001246200011e8462000260565b62000237565b905080838252602082019050828560208602820111156200014457600080fd5b60005b858110156200017857816200015d888262000182565b84526020840193506020830192505060018101905062000147565b5050509392505050565b600081519050620001938162000343565b92915050565b600082601f830112620001ab57600080fd5b8151620001bd8482602086016200010d565b91505092915050565b600081519050620001d7816200035d565b92915050565b60008060408385031215620001f157600080fd5b600083015167ffffffffffffffff8111156200020c57600080fd5b6200021a8582860162000199565b92505060206200022d85828601620001c6565b9150509250929050565b60006200024362000256565b9050620002518282620002cd565b919050565b6000604051905090565b600067ffffffffffffffff8211156200027e576200027d62000303565b5b602082029050602081019050919050565b60006200029c82620002a3565b9050919050565b600073ffffffffffffffffffffffffffffffffffffffff82169050919050565b6000819050919050565b620002d88262000332565b810181811067ffffffffffffffff82111715620002fa57620002f962000303565b5b80604052505050565b7f4e487b7100000000000000000000000000000000000000000000000000000000600052604160045260246000fd5b6000601f19601f8301169050919050565b6200034e816200028f565b81146200035a57600080fd5b50565b6200036881620002c3565b81146200037457600080fd5b50565b61110c80620003876000396000f3fe6080604052600436106100745760003560e01c80636cb3e8ef1161004e5780636cb3e8ef146100ff5780639377d7111461012a578063cacca4a01461016b578063d3650fb8146101945761007b565b80631703a018146100805780632f65142c146100ab5780634c12fa47146100d65761007b565b3661007b57005b600080fd5b34801561008c57600080fd5b506100956101d1565b6040516100a29190610e6a565b60405180910390f35b3480156100b757600080fd5b506100c06101d7565b6040516100cd9190610de8565b60405180910390f35b3480156100e257600080fd5b506100fd60048036038101906100f89190610b3a565b6102c5565b005b34801561010b57600080fd5b506101146104cb565b6040516101219190610dc6565b60405180910390f35b34801561013657600080fd5b50610151600480360381019061014c9190610b11565b610559565b604051610162959493929190610e85565b60405180910390f35b34801561017757600080fd5b50610192600480360381019061018d9190610b11565b6105cc565b005b3480156101a057600080fd5b506101bb60048036038101906101b69190610b11565b610aa8565b6040516101c89190610dab565b60405180910390f35b60015481565b60606002805480602002602001604051908101604052809291908181526020016000905b828210156102bc57838290600052602060002090600502016040518060a001604052908160008201548152602001600182015481526020016002820160009054906101000a900473ffffffffffffffffffffffffffffffffffffffff1673ffffffffffffffffffffffffffffffffffffffff1673ffffffffffffffffffffffffffffffffffffffff168152602001600382015481526020016004820160009054906101000a900460ff161515151581525050815260200190600101906101fb565b50505050905090565b6000805b600080549050811015610386573373ffffffffffffffffffffffffffffffffffffffff1660008281548110610327577f4e487b7100000000000000000000000000000000000000000000000000000000600052603260045260246000fd5b9060005260206000200160009054906101000a900473ffffffffffffffffffffffffffffffffffffffff1673ffffffffffffffffffffffffffffffffffffffff16141561037357600191505b808061037e90610fb5565b9150506102c9565b5060011515811515146103ce576040517f08c379a00000000000000000000000000000000000000000000000000000000081526004016103c590610e2a565b60405180910390fd5b60026040518060a0016040528060028054905081526020018581526020018473ffffffffffffffffffffffffffffffffffffffff16815260200160008152602001600015158152509080600181540180825580915050600190039060005260206000209060050201600090919091909150600082015181600001556020820151816001015560408201518160020160006101000a81548173ffffffffffffffffffffffffffffffffffffffff021916908373ffffffffffffffffffffffffffffffffffffffff1602179055506060820151816003015560808201518160040160006101000a81548160ff0219169083151502179055505050505050565b6060600080548060200260200160405190810160405280929190818152602001828054801561054f57602002820191906000526020600020905b8160009054906101000a900473ffffffffffffffffffffffffffffffffffffffff1673ffffffffffffffffffffffffffffffffffffffff1681526020019060010190808311610505575b5050505050905090565b6002818154811061056957600080fd5b90600052602060002090600502016000915090508060000154908060010154908060020160009054906101000a900473ffffffffffffffffffffffffffffffffffffffff16908060030154908060040160009054906101000a900460ff16905085565b6000805b60008054905081101561068d573373ffffffffffffffffffffffffffffffffffffffff166000828154811061062e577f4e487b7100000000000000000000000000000000000000000000000000000000600052603260045260246000fd5b9060005260206000200160009054906101000a900473ffffffffffffffffffffffffffffffffffffffff1673ffffffffffffffffffffffffffffffffffffffff16141561067a57600191505b808061068590610fb5565b9150506105d0565b5060011515811515146106d5576040517f08c379a00000000000000000000000000000000000000000000000000000000081526004016106cc90610e2a565b60405180910390fd5b6000151560028381548110610713577f4e487b7100000000000000000000000000000000000000000000000000000000600052603260045260246000fd5b906000526020600020906005020160040160009054906101000a900460ff16151514610774576040517f08c379a000000000000000000000000000000000000000000000000000000000815260040161076b90610e0a565b60405180910390fd5b60001515600360003373ffffffffffffffffffffffffffffffffffffffff1673ffffffffffffffffffffffffffffffffffffffff168152602001908152602001600020600084815260200190815260200160002060009054906101000a900460ff16151514610818576040517f08c379a000000000000000000000000000000000000000000000000000000000815260040161080f90610e4a565b60405180910390fd5b6001600360003373ffffffffffffffffffffffffffffffffffffffff1673ffffffffffffffffffffffffffffffffffffffff168152602001908152602001600020600084815260200190815260200160002060006101000a81548160ff021916908315150217905550600282815481106108bb577f4e487b7100000000000000000000000000000000000000000000000000000000600052603260045260246000fd5b906000526020600020906005020160030160008154809291906108dd90610fb5565b91905055506001546002838154811061091f577f4e487b7100000000000000000000000000000000000000000000000000000000600052603260045260246000fd5b90600052602060002090600502016003015410610aa457600160028381548110610972577f4e487b7100000000000000000000000000000000000000000000000000000000600052603260045260246000fd5b906000526020600020906005020160040160006101000a81548160ff0219169083151502179055506000600283815481106109d6577f4e487b7100000000000000000000000000000000000000000000000000000000600052603260045260246000fd5b906000526020600020906005020160020160009054906101000a900473ffffffffffffffffffffffffffffffffffffffff169050600060028481548110610a46577f4e487b7100000000000000000000000000000000000000000000000000000000600052603260045260246000fd5b90600052602060002090600502016001015490508173ffffffffffffffffffffffffffffffffffffffff166108fc829081150290604051600060405180830381858888f19350505050158015610aa0573d6000803e3d6000fd5b5050505b5050565b60008181548110610ab857600080fd5b906000526020600020016000915054906101000a900473ffffffffffffffffffffffffffffffffffffffff1681565b600081359050610af6816110a8565b92915050565b600081359050610b0b816110bf565b92915050565b600060208284031215610b2357600080fd5b6000610b3184828501610afc565b91505092915050565b60008060408385031215610b4d57600080fd5b6000610b5b85828601610afc565b9250506020610b6c85828601610ae7565b9150509250929050565b6000610b828383610bc4565b60208301905092915050565b6000610b9a8383610d25565b60a08301905092915050565b610baf81610f6d565b82525050565b610bbe81610f6d565b82525050565b610bcd81610f5b565b82525050565b610bdc81610f5b565b82525050565b6000610bed82610ef8565b610bf78185610f28565b9350610c0283610ed8565b8060005b83811015610c33578151610c1a8882610b76565b9750610c2583610f0e565b925050600181019050610c06565b5085935050505092915050565b6000610c4b82610f03565b610c558185610f39565b9350610c6083610ee8565b8060005b83811015610c91578151610c788882610b8e565b9750610c8383610f1b565b925050600181019050610c64565b5085935050505092915050565b610ca781610f7f565b82525050565b610cb681610f7f565b82525050565b6000610cc9601e83610f4a565b9150610cd48261102d565b602082019050919050565b6000610cec601583610f4a565b9150610cf782611056565b602082019050919050565b6000610d0f601d83610f4a565b9150610d1a8261107f565b602082019050919050565b60a082016000820151610d3b6000850182610d8d565b506020820151610d4e6020850182610d8d565b506040820151610d616040850182610ba6565b506060820151610d746060850182610d8d565b506080820151610d876080850182610c9e565b50505050565b610d9681610fab565b82525050565b610da581610fab565b82525050565b6000602082019050610dc06000830184610bd3565b92915050565b60006020820190508181036000830152610de08184610be2565b905092915050565b60006020820190508181036000830152610e028184610c40565b905092915050565b60006020820190508181036000830152610e2381610cbc565b9050919050565b60006020820190508181036000830152610e4381610cdf565b9050919050565b60006020820190508181036000830152610e6381610d02565b9050919050565b6000602082019050610e7f6000830184610d9c565b92915050565b600060a082019050610e9a6000830188610d9c565b610ea76020830187610d9c565b610eb46040830186610bb5565b610ec16060830185610d9c565b610ece6080830184610cad565b9695505050505050565b6000819050602082019050919050565b6000819050602082019050919050565b600081519050919050565b600081519050919050565b6000602082019050919050565b6000602082019050919050565b600082825260208201905092915050565b600082825260208201905092915050565b600082825260208201905092915050565b6000610f6682610f8b565b9050919050565b6000610f7882610f8b565b9050919050565b60008115159050919050565b600073ffffffffffffffffffffffffffffffffffffffff82169050919050565b6000819050919050565b6000610fc082610fab565b91507fffffffffffffffffffffffffffffffffffffffffffffffffffffffffffffffff821415610ff357610ff2610ffe565b5b600182019050919050565b7f4e487b7100000000000000000000000000000000000000000000000000000000600052601160045260246000fd5b7f7472616e736665722068617320616c7265616479206265656e2073656e740000600082015250565b7f6f6e6c7920617070726f76657220616c6c6f7765640000000000000000000000600082015250565b7f63616e6e6f7420617070726f7665207472616e73666572207477696365000000600082015250565b6110b181610f6d565b81146110bc57600080fd5b50565b6110c881610fab565b81146110d357600080fd5b5056fea264697066735822122018b9b0e5ae6fce97c189ad8e63e521b6e652e4ac16dda6684b55e4a2ff57d5d464736f6c63430008040033",
  "immutableReferences": {},
  "source": "/* SPDX-License-Identifier: UNLICENSED */\npragma solidity 0.8.4;\n\ncontract Wallet {\n    address[] public approvers;\n    uint public quorum;\n    \n    struct Transfer {\n        uint id;\n        uint amount;\n        address payable to;\n        uint approvals;\n        bool sent;\n    }\n    Transfer[] public transfers;\n    mapping(address => mapping(uint => bool)) approvals;\n    \n    constructor(address[] memory _approvers, uint _quorum) {\n        approvers = _approvers;\n        quorum = _quorum;\n    }\n    \n    function getApprovers() external view returns(address[] memory) {\n        return approvers;\n    }\n    \n    function createTransfer(uint amount, address payable to) external onlyApprover() {\n        transfers.push(Transfer(\n            transfers.length,\n            amount,\n            to,\n            0,\n            false\n        ));\n    }\n    \n    function getTransfers() external view returns(Transfer[] memory) {\n        return transfers;\n    }\n    \n    function approveTransfer(uint id) external onlyApprover() {\n        require(transfers[id].sent == false, \"transfer has already been sent\");\n        require(approvals[msg.sender][id] == false, \"cannot approve transfer twice\");\n        \n        approvals[msg.sender][id] = true;\n        transfers[id].approvals++;\n        \n        if (transfers[id].approvals >= quorum) {\n            transfers[id].sent =  true;\n            address payable to = transfers[id].to;\n            uint amount = transfers[id].amount;\n            to.transfer(amount);\n        }\n    }\n    \n    modifier onlyApprover() {\n      bool allowed = false;\n      for (uint i = 0; i < approvers.length; i++) {\n          if (approvers[i] == msg.sender) {\n              allowed = true;\n          }\n      }\n      require(allowed == true, \"only approver allowed\");\n      _;\n    }\n    \n    receive() external payable {}\n}\n",
  "sourcePath": "/Users/dominicwong/Code/wallet/contracts/Wallet.sol",
  "compiler": {
    "name": "solc",
    "version": "0.8.4+commit.c7e474f2.Emscripten.clang"
  },
  "schemaVersion": "3.3.4",
  "updatedAt": "2021-05-16T08:43:23.511Z",
  "networkType": "ethereum",
  "devdoc": {
    "kind": "dev",
    "methods": {},
    "version": 1
  },
  "userdoc": {
    "kind": "user",
    "methods": {},
    "version": 1
  }
}